:020000040800F2
:1000000020050020D5000008091A0008B1180008D2
:1000100000000000000000000000000000000000E0
:10002000000000000000000000000000531A00085B
:100030000000000000000000511A0008551A0008D6
:10004000E7000008E7000008E7000008E7000008F4
:10005000E7000008E7000008E7000008E7000008E4
:10006000E7000008E7000008E7000008E7000008D4
:10007000E7000008E700000800000000E7000008B3
:1000800000000000E7000008000000000000000081
:10009000E700000800000000E7000008E700000893
:1000A000E7000008E7000008E7000008E700000894
:1000B00085200008E7000008E7000008E7000008C6
:1000C0000348854600F046FB00480047452B0008E2
:1000D000200500200448804704480047FEE7FEE76B
:1000E000FEE7FEE7FEE7FEE7D11A0008C1000008C0
:1000F00030B50B46014600202022012409E00D46C0
:10010000D5409D4205D31D469540491B2546954047
:1001100040191546521E002DF1DC30BD70B500248B
:100120002546002801DA01244042002901DA012590
:100130004942FFF7DDFFAC4200D04042002C00D026
:10014000494270BDF0B51FB40646002082B0054696
:100150004024019100901BE0019922460F46304651
:1001600000F0E9F8049A059B801A994110D31046D3
:100170001946224600F0CFF8361A8F4101972246E1
:1001800001200021009F00F0C6F838184D41009072
:100190002046641E0028DFDC019B00982946324679
:1001A00007B0F0BDD2B201E00270401C491EFBD284
:1001B00070470022F6E710B513460A460446194672
:1001C000FFF7F0FF204610BD421C0178401C0029BB
:1001D000FBD1801A70470000F0B51FB488B00B99AE
:1001E0000998002448400999C00F4900490809911D
:1001F000C0070B990090490049080B91099908988C
:10020000A64608431CD00B990A98084318D00998B1
:1002100001244000420D4800410D099824050003C7
:10022000000B204309900B980003000B20430B9018
:1002300050181C494018002201901446104605E051
:10024000002001460DB0F0BD032801DA034600E0AE
:1002500003239C46C11A0AAE0AE05F0008ADED5BBD
:100260004F00F75B7D430027AA187C41491C5B1EA9
:100270006145F2DD410004AB5A522104120C0A43DD
:10028000240C401C0828DFDB01980290009970467E
:1002900001910090059B049A0799069800F0AAF82E
:1002A000D0E700000DFCFFFF10B500229623114699
:1002B00000F05AF810BDC20FD207400040080BD022
:1002C000C10D0723DB01C91840020905400A11438B
:1002D000C208400711437047002001467047CB0F0A
:1002E000DB07490010B5490802460A4307D00A0D4A
:1002F00007240903E401090B121B002A01DC00207A
:1003000010BDC900440F0C43C100E018D20580188D
:1003100000F022F810BD10B5202A04DB0146203A77
:100320009140002010BD914020239C1A0346E340D9
:100330001943904010BD10B5202A04DB0846203A2E
:10034000D040002110BD0B46D340D0402024A21A3B
:1003500091400843194610BD002904DA401C4900A9
:1003600001D140084000704770B40024050C05D14D
:100370001024000402D1002921D01124050E01D13E
:1003800000020834050F01D10001241D850F01D1A1
:100390008000A41C002801DB4000641C002908D058
:1003A00020252E1B0D46F540A14000D001212943F8
:1003B000084301061B1B000ADB1D02D5002070BC90
:1003C0007047DB05181880180029F8DA401C49002E
:1003D000F5D170BC40084000704710B5002B08DA1A
:1003E0000024401C614192185B411A4301D140082E
:1003F000400010BDF0B51FB482B005460C0003D01C
:10040000084601F05BFE02E001F058FE2030024693
:10041000009021462846FFF77EFF049B059A04467C
:100420000F4618431143084314D0184610431BD0FD
:10043000009840210A1A18460599FFF77CFF0546E7
:100440000E46009A05990498FFF765FF084305D00A
:10045000012004E02046394607B0F0BD0020C11756
:1004600005430E432C43374300990E986305401A09
:100470007905E40A00220C43FD0A0A3002D5002067
:100480000146E9E70105101969410C9C0D9D001911
:100490006941FFF7A2FFDFE7F0B50746084658407D
:1004A00087B0C00F049048000E4659004008490824
:1004B000BC1A884105D2384631461E4617460B46BF
:1004C00002465800400810434CD0300D03904005C0
:1004D0005900400D490D0590401A0290402872DAEB
:1004E00018030121000B09050843019004980092AC
:1004F000002805D0019952420020884100920190C5
:10050000029840210A1A01990098FFF704FF054656
:100510000C466B4607CB00F02FF9C0197141039AC6
:100520000E0D0023D71756401A467A40164344D082
:10053000049A002A2DD0029A012A039A15DC12058A
:10054000C01A914101263605001C7141D20F059E4B
:10055000D2070093019202962A462346FFF74AFFEC
:1005600007B0F0BD38463146FAE71605224A0F4675
:10057000B218C01AB74101210905001C4F410018EB
:100580007F41114618187941E20F10436D196441FB
:1005900013E0E2076D0815436408C2071443039A89
:1005A00001261205C01A91413605001C7141CE0783
:1005B000400830434908C01851412A462346FFF7F6
:1005C0000CFFCDE7FFE7049801224000C117121A83
:1005D00000238B4104983146C417381AA141EEE735
:1005E00030B40124E407634030BC55E730B4012443
:1005F000E407614030BC4FE70000E0FFF0B50C4677
:100600005C4085B0E40FE40703944C0000266408C6
:1006100059009446490802460296224321D0624678
:100620000A431ED06200570D4A000E032303550DE6
:10063000012402462C492405781B1B0B360B40185D
:1006400023432643614600901C46501AB44103D30D
:100650000098401C009002E0921800985B4100282E
:1006600003DA0020014605B0F0BD00200121090594
:100670000746864611E064461D46141BB54106D365
:100680006546521BB341744607430C43A646CD074B
:1006900040084908284392185B4105460D43EAD1BA
:1006A0001046184313D06046194650407140084325
:1006B00006D06046101AB34106D20122002306E09C
:1006C00000220123DB0702E00122D24353100098ED
:1006D00074460105381C6141029C039D0019694163
:1006E000FFF77BFEBFE70000FD0300004A0009039F
:1006F0000123090B1B0519430A4B10B5520D9A42F1
:1007000002DA0020014610BD064B34339A4203DC66
:100710009A1AFFF710FE10BD034BD218FFF7FBFD2E
:1007200010BD0000FF030000CDFBFFFF10B5002946
:1007300004DB0124E40740428C412146002B04DB0A
:100740001C460123DB075242A341994200D190424B
:1007500010BD0000064C0125064E05E0E36807CCFD
:100760002B430C3C98471034B442F7D3FFF7ACFC52
:10077000282F0008482F000810B5202A06DBCB17C9
:100780000846203A1041C1170B4306E00B461341BF
:10079000D0402024A21A91400843194610BD70B5DC
:1007A0000024014620314A79022A03D00421C16382
:1007B000012418E0026813680E25AB431360026839
:1007C00013685B085B001360436C1C22134001221A
:1007D00015469D40036C5D604A7100220A71816B71
:1007E000002900D08847204670BD70B5044600F04F
:1007F000D3F80546601C00D0641C00F0CDF8401B07
:10080000A042FAD370BD0000F8B500230124A2E095
:1008100027469F403A4070D04D68022D01D0122DDE
:1008200014D1DD08AD002D1800952D6A5E07AC4689
:10083000F50E0F26AE46AE406546B543AC460E6992
:100840007546AE4065462E43009D2E624D68012DD3
:1008500005D0022D03D0112D01D0122D16D185689F
:100860000326AC465D00AE46AE406546B543AC4699
:10087000CE687546AE4065462E43866046680D7963
:10088000BE43ED06ED0F9D403543456006685F00B1
:100890000325BD40AE46AE430D79B446AE07B60F54
:1008A000BE4065462E430660C6687546AE438D68F9
:1008B000BD403543C5604D68ED004BD5294D6E6B8D
:1008C00026436E639E08284DB6007519AC46AD6888
:1008D0009E07360F0F27B740BD4305273F07B84295
:1008E00001D1002715E0214FB84201D1012710E0C6
:1008F0001F4FB84202D102270BE02BE01D4FB84238
:1009000001D1032705E01C4FB84201D1052700E0C3
:100910000627B7402F436546AF60184D2E684F68D5
:100920009643FF0300D516432E606E684F689643CA
:10093000BF0300D516436E60AE684F689643FF0252
:1009400000D51643AE60EE684F689643BF0200D5EF
:100950001643EE605B1C0A681546DD4000D057E781
:10096000F8BD0000001002400000014000040050EB
:1009700000080050000C0050001C00500004014012
:100980000069084000D001207047002A01D0816131
:10099000704781627047000001480068704700009E
:1009A0002800002002480168491C016070470000CF
:1009B0002800002010B50848002401684022114397
:1009C0000160204600F00AF8002801D0012401E06F
:1009D00000F01CF8204610BD0020024070B505460E
:1009E00009487D210024C9000068FFF781FB00F061
:1009F00049FC002801D0012404E000222946501EB1
:100A000000F01AF8204670BD2C0000200448416B0D
:100A1000012211434163816B0204114381637047DA
:100A200000100240C106C90E01208840014908603B
:100A30007047000000E100E010B500F0E7FF10BDD6
:100A4000F8B504460068614D810601D400057DD5E6
:100A50005E4E0027403EB06BC00004D4B06B310442
:100A60000843B06301275A480168C90511D40168D9
:100A7000821511430160FFF78FFF009005E0FFF73B
:100A80008BFF0099401A642844D851480068C0057B
:100A9000F5D53168032000056268014010408842A6
:100AA00005D10323A0681B051840884208D0900395
:100AB000800F032804D13068800301D50120F8BDE0
:100AC000286903210904084029D00A40824202D043
:100AD0002278920606D4A2680A4082421FD020885B
:100AE00000051CD528692A6988430121C9040A43E5
:100AF0002A612A698A432A612861C0050FD5FFF758
:100B00004BFF009008E0FFF747FF0099411A31487A
:100B1000814201D90320F8BD28698005F3D56168B9
:100B20008803800F032805D1326800058243014005
:100B30000A433260286903226168120411400843A5
:100B40002861002F06D0B16B012000E002E0000711
:100B50008143B1632078C00705D0E868E168800868
:100B600080000843E8602078800705D5E8680C21FC
:100B7000884321690843E8602078400706D5E86883
:100B800003218902884361690843E86020780007EF
:100B900006D5E868032109038843A1690843E86092
:100BA0002078400606D5E868012189068843216A35
:100BB0000843E8602078000606D5E8680321890428
:100BC0008843E1690843E8600020F8BD4010024016
:100BD0000070004088130000F8B50E4605007DD077
:100BE00053480068C007C00FB0420AD2504801689D
:100BF00049084900314301600068C007C00FB04296
:100C000071D128784B4C800705D5E068F0218843E6
:100C1000A9680843E0602878C00752D068680228B5
:100C200017D0032818D02168012818D08905002979
:100C300059DAE168890889000143E160FFF7ACFEF9
:100C400069680746022912D003291CD0012926D041
:100C500033E021688903EAE721688901E7E749076A
:100C6000E5E7FFF799FEC11B3348814223D8E068CE
:100C70000007800F0228F4D123E0FFF78DFEC11B8F
:100C80002D48814217D8E0680007800F0328F4D16F
:100C900017E0FFF781FEC11B274881420BD8E068AF
:100CA0000007800F0128F4D10BE0FFF775FEC11B90
:100CB0002148814201D90320F8BDE0680007800F78
:100CC000F3D11B480168C907C90FB1420DD90168AA
:100CD0004908490031430160006800E003E0C007B3
:100CE000C00FB04201D00120F8BD2878400706D5DA
:100CF000E068072109028843E9680843E060287832
:100D0000000707D5E0680721C90288432969C9009F
:100D10000843E06000F036F8E168084A0906090F68
:100D2000515CC840064908600020FFF757FEF8BD37
:100D3000002002400010024088130000062F000827
:100D40002C000020044805490068C968044A490588
:100D5000490F515CC84070472C0000200010024031
:100D60001F2F0008044805490068C968044A89041F
:100D7000490F515CC84070472C0000200010024011
:100D80001F2F000810B5184AD1680C20084004280D
:100D90000BD0082810D00C2810D050680004410F48
:100DA0000120C003491C884010BD1068C00601D551
:100DB0000E4810BD0E4810BD0E4810BD88020E4BE7
:100DC000000F185C0902D368890F491CDB0301D5A9
:100DD000084A05E01268D20601D5044A00E0044A38
:100DE0005043FFF785F910BD0010024000093D0097
:100DF0000024F40000127A00162F0008FEB505004A
:100E00007ED0FE4CE7680C20E66807400120000415
:100E100006402878C00747D0082F05D00C2F0AD1EC
:100E200001200004864206D1206880033CD5686812
:100E30000028E5D038E0012069680004814203D130
:100E400021680143216011E0052301221B04920463
:100E50009942216802D111432160F1E78143216069
:100E60002168014000912068904320606868002854
:100E70000DD0FFF791FD009005E0FFF78DFD009983
:100E8000401A64287AD820688003F6D50CE0FFF772
:100E900083FD009005E0FFF77FFD0099401A64286C
:100EA000F0D820688003F6D42878800755D5092328
:100EB000E868042F0DD00C2F01D1002E09D0002896
:100EC0003BD02168994301432160FFF765FD064649
:100ED00027E02168490701D5002891D061681F22C9
:100EE000120291432A6912021143616021689943F9
:100EF00001432160FFF746FFE16809060A0F00E0A1
:100F0000BBE1BF49895CC840BE4908600020FFF7CB
:100F100065FD002872D120E0FFF73EFD801B02280E
:100F2000B0D820684007F7D560681F2109028843C0
:100F300029690902084360600FE02068400840000A
:100F40002060FFF729FD064604E0FFF725FD801B22
:100F5000022897D820684007F7D42878C0065FD5C4
:100F6000002F0CD0E869002849D02068FF2101310A
:100F700008432060FFF710FD06462DE0E4E02068FE
:100F8000800502D5E8690028A7D0606807214903D9
:100F90008843696A084360606068298C0002000A1F
:100FA000090608436060686A410B0120C003491CC0
:100FB0008840E16809060A0F9149895CC840914957
:100FC00008600020FFF70AFD002817D128E0FFF78E
:100FD000E3FC801B0228A3D820688005F7D5606851
:100FE000072149038843696A084360606068298C67
:100FF0000002000A09060843606011E023E121684D
:10100000FF20013081432160FFF7C6FC064604E063
:10101000FFF7C2FC801B02289BD820688005F7D40C
:101020002878794E000724D568690028306910D0E7
:10103000012108433061FFF7AFFC009005E0FFF7A6
:10104000ABFC0099401A02287ED830698007F6D59B
:101050000FE0400840003061FFF79EFC009005E083
:10106000FFF79AFC0099401A02286DD83069800772
:10107000F6D42878400764D500200290A06BC00009
:1010800006D4A06B012109070843A0630120029048
:101090005E480168C90511D40168821511430160D9
:1010A000FFF77AFC009005E0FFF776FC0099401A04
:1010B000642849D855480068C005F5D5FF20AA68BE
:1010C0000130824203D131690143316111E00121D4
:1010D0008902002A07D005231B029A4203D13269F4
:1010E0000A433261EFE732698243326130698843F3
:1010F0003061A86800280ED0FFF74EFC009006E093
:10110000FFF74AFC0099411A414881421CD83069D6
:101110008005F5D50DE0FFF73FFC009006E0FFF7F6
:101120003BFC0099411A3A4881420DD8306980054C
:10113000F5D40298002804D0A16B01200007814358
:10114000A1632878800600E07CE02ED53148A969AB
:101150004314002916D0A26801210A43A260626BE1
:101160000A436263016A19430162FFF715FC0646F0
:1011700004E0FFF711FC801B022863D8A0688007F9
:10118000F7D512E0A16849084900A160016A9943B6
:101190000162FFF701FC064604E0FFF7FDFB801B40
:1011A00002284FD8A0688007F7D4A86A002866D024
:1011B0000C2F4DD0012636060228206805D0B043FA
:1011C0002060FFF7E9FB05463EE0B0432060FFF7F3
:1011D000E3FB074604E0FFF7DFFBC01B022831D822
:1011E00020688001F7D4296BE86AE2680843696BDC
:1011F000FD231B049A43114308430DE000100240F5
:10120000062F00082C000020401002400070004013
:101210008813000000000140E06020683043206037
:10122000FFF7BAFB054604E0FFF7B6FB401B0228B8
:1012300008D820688001F7D521E0FFF7ADFB401BFF
:10124000022801D90320FEBD20688001F5D416E0F4
:101250000128F8D0E06801210904EA6A01409142BE
:101260000BD10F2189042A6B0140914205D1032142
:1012700089050840696B884201D00120FEBD00202D
:10128000FEBD0000094910B5401E884201D9012069
:1012900010BD074C60610321081F00F0B7FB002060
:1012A000A06107202061002010BD0000FFFFFF00AB
:1012B00000E000E0F0B502462032137E012B15D08D
:1012C000012717760223537605686C68AB68702691
:1012D000B4430E68496826438024A34319436E60D3
:1012E00000688160577600201076F0BD0220F0BDC6
:1012F00070B5040005D025462035687E002802D050
:1013000006E0012070BD00202876204600F00AF893
:1013100002206876211D206800F004FC0120687618
:10132000002070BD006801218907884204D103486C
:10133000816B01221143816370470000001002405D
:10134000F8B5054604462035287E012817D0012629
:101350002E7602206876226890687727FF23B843AC
:101360001B02984390600A68502A31D00EDC202A74
:101370004BD006DC002A48D0102A3AD145E00220A2
:10138000F8BD302A41D0402A33D136E0602A27D038
:10139000702A12D001200003121A2AD0824228D1CA
:1013A000CB684A688968206800F0E8FB206881689B
:1013B00001229203114381601BE0CB684A6889686F
:1013C000206800F0DBFB216888683843886010E003
:1013D000CA684968206800F0E4FB5021206806E0F4
:1013E000CA684968206800F0EDFB6021206800F0C1
:1013F000D0FB6E7600202876F8BDCA684968206860
:1014000000F0CFFB40212068F1E711462068EEE7AD
:1014100070477047F8B502680446D0691168936850
:1014200005072D0F5BD0DD07ED0FFF2621360E409F
:101430002E4367D0C60706D0CE0504D50126166216
:10144000E26F3243E267870702220426002F06DAA2
:10145000DF0704D027683A62E76F3743E76747073B
:1014600006D5DB0704D023681E62E36F1343E367EE
:10147000020709D520220A402A4305D02368082202
:101480001A62E36F1343E367E26F002A2FD08006EE
:1014900006D5880604D5216E002901D0204688474C
:1014A000E06F21688968490601D4000724D52046E9
:1014B00000F03AFC20688168490619D5816840220D
:1014C00091438160E06E002812D020498163E06E74
:1014D000FFF765F900280AD0E06E816B06E085060B
:1014E00010D58D060ED5216E1CE020468847F8BD2C
:1014F0002046FFF78EFFF8BD2046FFF78AFF002049
:10150000E067F8BDC50208D55B0206D501200005DD
:1015100010622046FFF77CFFF8BD030605D50B06D9
:1015200003D5616E0029E0D1F8BD4006FCD5480620
:10153000FAD51368204640218B4313602021616750
:101540000021616600F04DF9F8BD0000151D00088E
:1015500010B5040003D0606F002802D007E001201E
:1015600010BD002170200155204600F027F82420EE
:10157000606720680168490849000160204600F062
:101580003BFC0128ECD0606A002802D0204600F025
:101590002CFB206841680922D202914341602068F7
:1015A00081682A22914381602068016801221143E9
:1015B0000160204600F07EFB10BD000010B586B033
:1015C000044614216846FEF7F4FD15492068884258
:1015D00023D11448816B0122520411438163C16AF3
:1015E00001221143C162C06A6946104005900C2077
:1015F000009002200190002002900320039004201C
:10160000049005200007FFF7FFF8002201211C20AD
:10161000FFF712FA1C20FFF705FA06B010BD000014
:101620000044004000100240F0B5836F202B54D1DD
:1016300000290AD0002A08D08568DC01A54206D11D
:101640000369002B03D1CB0701D00120F0BD034675
:1016500060331E7C012E40D001261E744165014678
:1016600040310A834A830022FF260266A54204D144
:101670000569002D13D11A4D0AE07F27002D09D0EE
:1016800001263607B5420CD10569002D05D03F254E
:101690008D8307E00569002D01D08F8302E08E83E2
:1016A00000E08A83C2672221816701688D68012674
:1016B00035438D608168A14202D1016900290AD0B9
:1016C000084901661A7400680168FF22213211433B
:1016D00001600020F0BD0449F3E70220F0BD0000E6
:1016E000FF010000A11D0008491D0008074910B5B1
:1016F00088420AD1642301220549044800F00AF80F
:10170000012203490148FFF78FFF10BD6C00002044
:1017100014000020FFB50446406F83B017460D4605
:1017200020285CD1002D0AD0002F08D0A168C0016C
:10173000814207D12069002804D1E80702D00120A6
:1017400007B0F0BD204660300290007C012846D0F2
:101750000298012101740020E06721206067FFF7F3
:101760001BF9264640360190378277820120A16816
:101770000003814202D12069002802D02F460025B3
:1017800011E000270FE000228021204600F048FCF5
:10179000002815D1002F15D02168387888627F1C69
:1017A000708A401E7082708A019B00280698009003
:1017B000E9D100224021204600F032FC002808D068
:1017C0000320BDE728882168C005C00D8862AD1CD4
:1017D000E6E720206067029900200874B0E7022045
:1017E000AEE770470FB470B586B06846058E00242A
:1017F0000126009502940196039469460A98FFF722
:1018000003F86846408E694651C1039469460B98B7
:10181000FEF7FAFF012229460A98FFF7B6F83220B0
:10182000FEF7E3FF002229460B98FFF7AEF806B05B
:1018300070BC08BC04B018470FB4F8B56846478CB4
:10184000002439460798FFF79BF80128F9D068462D
:10185000068C0025012231460698FFF796F86400B1
:1018600039460798FFF78CF8002800D0641C002246
:1018700031460698FFF789F86D1CEDB2182DE9D3B3
:1018800000250AE0012231460698FFF77EF8002283
:1018900031460698FFF779F86D1C0A98A842F1DCEA
:1018A0002046F8BC012108BCC905484004B01847CF
:1018B000FEE70000F0B587B014216846FEF779FC1A
:1018C0002E48C26A04210A43C262C26A0A400592D3
:1018D000C16A01252943C162C16A29400591C16AD3
:1018E00002263143C162C06A002230400590294679
:1018F0002348FFF74AF8234F052000223946000706
:10190000FFF743F84521002209011F48FFF73DF882
:101910000024009502946946194801950394FEF746
:1019200073FF01946946164800960294FEF76CFF17
:101930000520029469460007009701950394FEF77D
:1019400063FF052001946946000700960294FEF7A4
:101950005BFF4520000100900294694601950394C5
:101960000948FEF751FF2020009001946946029437
:101970000548FEF749FF07B0F0BD00000010024027
:1019800000080050E10300000004005010B586B0CC
:101990000024009401210F480194029403940494BC
:1019A0008907059401608460C46004615321446127
:1019B0004160FFF79DFC0120000300906946054847
:1019C000FFF7BEFC049404A902480594FFF772FCDB
:1019D00006B010BD3000002010B50A48084901606B
:1019E000E1214902416000218160C16001618161A2
:1019F000C1610C22016242614162FFF7A9FD10BD85
:101A0000004400406C000020704700008307FF2264
:101A1000DB0E9A408907090E994000280BDA00076F
:101A2000000F0838830808489B001818C3699343BF
:101A30000B43C3617047830804489B001B18186858
:101A4000904308431860704700ED00E000E400E0B8
:101A50007047704710B5FEF7A5FF10BD30B59DB0BB
:101A600038216846FEF7A5FB142117A8FEF7A1FB55
:101A700024210EA8FEF79DFB144801680322D20220
:101A80009143C21489180160012003901020049032
:101A900080030C9002250001009500240D900A950A
:101AA0000B946846FFF7AAF90F20179003201890AF
:101AB00019941A9401211B9417A8FFF78DF80EA80A
:101AC0000E951294FEF7BCFF1DB030BD00700040B3
:101AD00010480168821511430160C1680E4A114027
:101AE000C16001680D4A11400160816849084900E0
:101AF000816001680122920491430160C168FD2266
:101B000012049143C160002101610549C00388604E
:101B100070470000001002400C40FF88F6FFF6FE00
:101B200000ED00E070B5026801239B07114C124DD7
:101B3000984203D0A04201D0A84203D17026B243FC
:101B40004E683243984203D0A04201D0A84204D14B
:101B500003231B029A43CB681A4380239A430B69E1
:101B60001A4302608A68C262096881620121416188
:101B700070BD0000000801400014014030B58468C9
:101B8000FF252D021B021343AC430B432343836009
:101B900030BD826870239A430A4307210A4382605A
:101BA000704730B5036A046A64086400046284699B
:101BB000F025AC43120122430A24A3430B43826164
:101BC000036230BD30B5036A1024A3430362846905
:101BD000036A0F252D031203AC432243A024A34321
:101BE000090119438261016230BD10B5818CC907BA
:101BF00007D001684A6801235B049A43836A1A4349
:101C00004A60818C890707D501684A6801231B0453
:101C10009A43C36A1A434A60818C490707D5016811
:101C20004A6801239B049A43036B1A434A60818CE0
:101C3000090707D501684A680123DB039A43436B10
:101C40001A434A60818CC90607D50268916801234E
:101C50001B039943836B19439160818C890607D5D7
:101C600001688A6801235B039A43C36B1A438A6045
:101C7000818C490612D503685A6801210905046C54
:101C80008A4322435A60026C8A4207D10268516833
:101C900003235B059943436C19435160818C09060A
:101CA00007D501684A680123DB04806C9A4302432C
:101CB0004A6010BDF8B500260446C667FEF76CFE04
:101CC000054620680068124F000709D501212B4600
:101CD000002249052046009700F0A2F900280DD106
:101CE0002068006840070BD501212B46002289059A
:101CF0002046009700F094F9002801D00320F8BD99
:101D000020206067A067603426740020F8BD0000C2
:101D1000FFFFFF0110B5806A0022014640314A836F
:101D20004A82FFF776FB10BD01680A68FF23213362
:101D30009A430A6001688A68520852008A6020212A
:101D4000816700210166704710B5014640318B8BD9
:101D5000846F0268222C04D09069082108439061A6
:101D600010BD526A446D1A402280426D921C426539
:101D70004A8B521E4A83498B0029F1D101680A68B7
:101D8000FF2321339A430A6001688A68520852008F
:101D90008A602021816700210166FFF7A7FC10BD42
:101DA00010B5014640318B8B846F0268222C04D021
:101DB000906908210843906110BD526A1A40436D32
:101DC0001A70426D521C42654A8B521E4A83498BDF
:101DD0000029F1D101680A68FF2321339A430A6080
:101DE00001688A68520852008A60202181670021B8
:101DF0000166FFF77BFC10BDF8B504462669A268B2
:101E0000E76932436669102000253E432368324368
:101E100078491E68784F3E4016431E6023685A6812
:101E200003263603B243E66832435A602368A26948
:101E30008B4201D0266A32439E680B273F02BE4385
:101E400016439E606D4E23686D4AB3420CD1D26832
:101E50009207920F06D0012A38D0022A34D0032AE2
:101E600020D11EE001201DE0664EB3420AD1D268A7
:101E70000C26324026D0042A28D0082A24D00C2A46
:101E800010D10EE08B420DD1D6680322920216408B
:101E900018D001229202B61A18D0B61A14D096425F
:101EA00000D10820564A0126403A574FF6038B428C
:101EB00036D100280CD002280DD0042812D00828D2
:101EC0001FD11CE00020EDE70220EBE70420E9E74A
:101ED000FEF738FF08E01068C00601D5384605E077
:101EE0004A4803E0FEF74EFF002873D062685100B5
:101EF0005118814205D81103814202D303E03046D4
:101F0000F4E7012566E0010E0602500800233018B0
:101F10005941FEF717F903210902411A3C4A55E0DD
:101F2000E169B14232D1030000F0DFF809070A0D80
:101F300006250606062B0600E3E7FEF703FF1CE076
:101F4000FEF710FF19E010686168C00602D5480866
:101F5000304A01E0304A48088018FEF7C9F880B2DC
:101F600001462E4A10399142CBD8511C014000073E
:101F7000400F08432CE0FEF705FF616840004A0867
:101F8000EAE76168012248081204E5E7030000F06F
:101F9000ACF809070A0D06260606062C0600B0E76F
:101FA000FEF7D0FE1DE0FEF7DDFE1AE01068616866
:101FB000C00602D54808C01902E014484A081018A3
:101FC000FEF796F880B20146144A1039914298D82B
:101FD0002168C8600020206660662846F8BDFEF7CC
:101FE000D1FE61684A088018EAE7616848088019EC
:101FF000E6E7000000480040F369FFEF00380140C9
:10200000401002400044004000093D000024F4005C
:10201000FFFC0F0000127A000048E801EFFF00000B
:10202000FFB581B017460E4604460A9D09E0681CBC
:1020300007D0FEF7B1FC0499401AA8420CD8002D35
:102040000AD02068C1693046884318D00020B842C1
:10205000EDD0002005B0F0BD20680168FF22A1325C
:10206000914301602068816849084900816020200F
:102070006067A0670020603420740320EAE7012035
:10208000E5E7000010B50248FFF7C4F910BD0000F5
:102090006C0000200FB410B504A9074B02AA0398E6
:1020A00000F0FAF8044602A9002000F091FC204656
:1020B00010BC08BC04B01847D12900082021020C2C
:1020C00001D010211046020A01D010460839020939
:1020D00001D01046091F820801D01046891E42080F
:1020E00001D0881E7047081A704730B47446641EC9
:1020F0002578641CAB4200D21D46635D5B00E3188B
:1021000030BC184702E008C8121F08C1002AFAD1E3
:1021100070477047002001E001C1121F002AFBD167
:1021200070470000F0B51FB486B00998089A030DF7
:102130000021024314D05148514A18185043051445
:102140001198012810981AD0281A401C00264D4FCB
:102150004D49009601910490002812DA444211E0A2
:102160001198012449A3012801D11098C143069870
:10217000119A84600360C26041600BB0F0BD4042C0
:10218000E4E70446210500203F4A001C5141039129
:10219000029012E0E00707D032463B4601990098D2
:1021A000FEF71AF80191009032463B461046194658
:1021B000FEF712F806460F466410002CEAD1049888
:1021C000039B0028029A0999089806DAFEF704F89A
:1021D000019B009AFEF700F805E0FEF70FFA019B5D
:1021E000009AFEF70BFA04460E460022284BFEF733
:1021F0009DFA03D80020C043014607E00022254B8A
:1022000020463146FEF748F9FEF770FA102409E03F
:10221000002C0ADB0A220023FDF794FF079B3032D3
:102220001A55641E02460A43F2D11122641C079B10
:10223000121B1C19119B012B03D0012308430ED143
:102240000AE0084304D0112010900020119077E795
:102250001098151A6D1E0BE01098824202DD0023C3
:102260006D1C03E0824201DA00236D1E002BEED0CC
:10227000069811998260C16030C07EE701FCFFFFC3
:10228000104D0000000014400000F03F300000003E
:102290000000F0430000E03FFFB597B00646002580
:1022A00018E2252877D100242746FD49049400E050
:1022B0000443761C32780120203A90400842F7D13E
:1022C00030782A280ED00222307801463039092988
:1022D00016D804990A235943303940181443761C00
:1022E0000490F1E7189802C804911890002904DAC4
:1022F0000120400304434842049002200443761C1A
:1023000030782E2814D1042004437078761C2A28B3
:1023100009D11898761C80C8189009E00A214F430B
:10232000303FC719761C3078014630390929F5D974
:1023300030786C2810D006DC4C281AD068280ED0D3
:102340006A2817D104E0742813D07A2812D110E03B
:102350000120400504430CE00121090501E00321AF
:1023600009050C437178814203D10120000524182E
:10237000761C761C3078119066280BD013DC582818
:102380007DD009DC00287BD04528F6D04628F4D043
:1023900047281AD1A5E118E0632835D0642870D009
:1023A000652812D19DE170286CD008DC6728F1D037
:1023B00069287BD06E280DD06F2806D1BAE073282B
:1023C0002ED0752871D0782859D01A9A199990472B
:1023D0006D1C7EE16002400F022809D003280DD059
:1023E0000428189801680DD00D60001D189070E148
:1023F0001898EA1701680D604A60F6E718980168B6
:102400000D80F2E70D70F0E718986A4601781172B6
:10241000001D18900020507202A80090012005E0D5
:10242000189802C8189000200091C04361070DD58C
:10243000002101E00199491C0191B94212DA81425F
:10244000F8DB009A515C0029F4D10BE0002101E097
:102450000199491C01918142FADB019A0099895C3A
:102460000029F5D1019904981A9B471A214638464C
:10247000199A00F097FA0199401945180BE04FE0BE
:102480002CE113E04EE0009800990078491C00917F
:102490001A9A199990470198401E0190401CF2D158
:1024A000214638461A9B199A10E137E00A2000218C
:1024B000009001916002410F022907D0189A01CAC9
:1024C0001892C2179446032908D00AE01898C01D34
:1024D000C108C90005C91891944607E000B2C217A7
:1024E0009446042902D140B2C1178C4600226146AD
:1024F000944506DA0A460021404291418C462D213E
:1025000002E0210504D52B216A461173012103E065
:10251000E10701D02021F7E7029155E00A200AE007
:10252000102008E0102000900021042004430191B5
:10253000082703E008200021019100906002410F6C
:10254000022907D0189A01CA18920022944603293A
:1025500008D008E01898C01DC108C90005C9189125
:10256000944603E080B2042900D1C0B20021029158
:10257000210729D51199702906D0009A1021019BB5
:102580004A401A4305D00EE040216A4611730121EA
:1025900008E06146014306D030216A461173119963
:1025A000517302210291009A0821019B4A401A436B
:1025B0000AD16146014301D1610705D530216A4640
:1025C000117301217F1E02911199582904D035A160
:1025D0000E910DA90D910DE037A1F9E76146019B20
:1025E000009AFDF7AFFD0E9B8C469B5C0D9A521E28
:1025F0000D92137061460143F0D10D9805A9081A98
:1026000020300190600703D501200004844300E0DE
:1026100001270198874201DD381A00E00020019966
:1026200000904118029809180498401A0490E00399
:1026300006D421461A9B199A049800F0B3F945195B
:10264000002706E003A81A9AC05D199990476D1CEF
:102650007F1C02988742F5DBE0030CD521461A9BCC
:10266000199A049800F09EF9451904E01A9A30204E
:10267000199990476D1C0099481E00900029F5DCBF
:1026800008E00D980D990078491C0D911A9A199936
:1026900090476D1C0199481E01900029F1DC63E10F
:1026A0000928010030313233343536373839616228
:1026B00063646566000000003031323334353637EC
:1026C00038394142434445460000000000F05AF9C1
:1026D0004519761C3078002800D0E2E528461BB06A
:1026E000F0BD600700D406271898C01DC108C900B6
:1026F00048680A680831C30FDB071891190001D038
:102700009CA108E0210501D59BA104E0E10701D0CF
:102710009AA100E09AA1430011985B0810916528E6
:102720000CD006DC452809D046281DD0472841D1C9
:1027300041E0662818D067283CD13CE00021112FE9
:1027400001DB112000E0781C0191009008A911A87C
:10275000FFF7E8FC139905910021119A15927F1C4F
:1027600012980197009150E00120C00703900120CA
:10277000019008A9009711A8FFF7D4FC139A1499A7
:1027800005920022119B009212981593059A0192CE
:10279000002901D0104602E0791C40180190381A37
:1027A00001D5019804E04042401E0090781C019041
:1027B000C01B029043E0012F00DA01270021112FF6
:1027C00001DD112000E038460191009008A911A810
:1027D000FFF7A8FC13990591119A00211298159200
:1027E0000091019721070CD40599B94201DB0199A9
:1027F00000E00191012904DD159A491E515C302940
:1028000006D0B84201DA011D05DA0121029115E076
:102810000199491EEDE7002805DC00994118009157
:102820000199091A03E0019A411C914200DD0191CE
:102830000099401A401C02900120C0070390200715
:1028400006D402990198814202DB0020C043029025
:1028500000206946C87707AF012103980337C907ED
:10286000884224D0022011902B2012900398002837
:102870000CDA404203902D20129007E00A210398C1
:10288000FDF736FC30317F1E039039701199481ED8
:1028900011900029F2DC03980028EFD1791E1298DC
:1028A00008703078202108404530BF1E387006A8D7
:1028B000C01BC01D039010980078002800D0012094
:1028C000019941180298C01709180398091804982B
:1028D000401A401E0490E00306D421461A9B199A20
:1028E000049800F05FF8451910980078002803D08C
:1028F0001A9A199990476D1CE00324D521461A9B1A
:10290000199A049800F04EF845191CE00098002828
:1029100007DB00990598884203DD1598405C1999FA
:1029200001E0199930201A9A904700986D1C401CBC
:1029300000900298401E0290002804D11A9A2E207E
:10294000199990476D1C0199481E01900029DDDC02
:1029500005E038781A9A7F1C199990476D1C0399E5
:10296000481E03900029F4DC21461A9B199A04980A
:10297000ACE600002D0000002B000000200000004D
:1029800000000000F8B5044600251E4617468804DE
:1029900004D405E039462020B0476D1C641EF9D5EB
:1029A0002846F8BDFFB50446002581B01E46C80381
:1029B00001D5302700E02027880404D505E03846FB
:1029C0000399B0476D1C641EF9D5284605B0F0BDCB
:1029D0000A68531C0B60107070474001401EFDD206
:1029E000704710B50121002000F046F80220FDF7E5
:1029F000FCFE10BD10B50146012000F03DF810BDF1
:102A000010B5002907D0012907D002290BD00329CE
:102A100008D1D43002E0803000E0C030C1B20020E4
:102A200000F02AF810BD9430F8E710B533210020EB
:102A300000F022F83221002000F01EF828210020AA
:102A400000F01AF80C21002000F016F806210020F2
:102A500000F012F80121002000F00EF80220FDF72E
:102A6000C4FE10BD10B5044602E0FFF7C3FF641CAE
:102A700020780028F9D110BD70B50C46012105253C
:102A800049022D07002801D0012200E0002228463B
:102A9000FDF77BFFFF21002201312846FDF775FF7E
:102AA000204600F023F801220F4E950229463046B9
:102AB000FDF76BFF6420FFF790FF002229463046A8
:102AC000FDF763FF2007000E00F010F801222946F1
:102AD0003046FDF75AFF6420FFF77FFF00222946AA
:102AE0003046FDF752FF70BD0004005070B504463B
:102AF000124DC00601D5012200E000222021284607
:102B0000FDF743FFA00601D5012200E0002240218D
:102B10002846FDF73AFF600601D5012200E00022B9
:102B200080212846FDF731FF0548210601D5012205
:102B300000E000224021FDF728FF70BD000000509A
:102B4000000400508CB0BD4C0694102168460794D8
:102B5000018420214184002540260A960995FDF72D
:102B600029FFFEF77BFFFEF7A5FEFEF735FFFEF718
:102B70000DFFB348FDF728FB82B26423B049B1488A
:102B8000FEF7C8FD0122AE49AE48FEF74DFDFFF746
:102B90004CFF21462B4600960846089AFEF722FE77
:102BA000A94E31E0FFF71DFFA54CA84F143C25614D
:102BB000A5600A98009006A80FC8FEF73DFE2060A9
:102BC000A3492068C019FDF7A9FA2060216820698F
:102BD00040182061A068401CA0600A28E9DB0A2197
:102BE0002069FDF79BFA20616060626899A101A8E5
:102BF000FFF750FA01A8FDF7E7FA82B2642301A9B2
:102C00009048FEF787FD05E101213046FDF7B8FE4B
:102C10000128C7D1FFF7E5FE00210846FFF7F0FEC7
:102C200090A0FFF71FFF7D20C000FDF7DEFDE1E073
:102C3000002201213046FDF7A8FE052424070022CA
:102C400001212046FDF7A1FE032000F045F90122F5
:102C500011462046FDF799FE0A2000F03DF90022BA
:102C600001212046FDF791FE002702212046FDF7B5
:102C700087FE0128F9D103E002207F1C00F02CF927
:102C800002212046FDF77CFE0128F5D03846FDF7ED
:102C90000BFBFDF710FB774A774BFDF79DFA0022FF
:102CA000764BFDF799FAFDF71AFB654C143CE06092
:102CB000FDF701FB024663480B4671A18030FFF728
:102CC000E9F960488030FDF77FFA5E4982B26423FB
:102CD00080315C48FEF71EFD25615C4FA5600A98B7
:102CE000009006A80FC8FEF7A7FD2060584920688D
:102CF000C019FDF713FA206021682069401820618F
:102D0000A068401CA0600A28E9DB0A212069FDF7C1
:102D100005FA206162684FA101A8FFF7BBF901A87D
:102D2000FDF752FA82B2642301A94648FEF7F2FC8D
:102D30005849E068884209DB20686168401A052824
:102D400004DC20686168401A411D68DA6168206906
:102D5000411A012903DC6168401A411C23DAFFF79C
:102D600040FE00210520FFF74BFE4BA0FFF77AFE47
:102D700001210620FFF744FE4AA0FFF773FE02215F
:102D80000820FFF73DFE4AA0FFF76CFE0321082054
:102D9000FFF736FE46A0FFF765FE012211463046DA
:102DA000FDF7F3FD1DE0FFF71CFE00210520FFF7F6
:102DB00027FE39A0FFF756FE01210620FFF720FE6F
:102DC0003DA0FFF74FFE02210820FFF719FE38A0B3
:102DD000FFF748FE03210820FFF712FE34A0FFF79B
:102DE00041FE7D20C000FDF700FD0022012130469C
:102DF000FDF7CBFD02213046FDF7C2FD012800D0D2
:102E000016E7FFF7EEFD00210846FFF7F9FD2DA0BC
:102E1000FFF728FE7D20C000FDF7E7FCF4E6FFF792
:102E2000E0FD01210620FFF7EBFD23A0FFF71AFECE
:102E300003210920FFF7E4FD26A0D0E7000400509D
:102E4000140000206C000020000800501CC07EFF11
:102E5000DC05000057656967682069732025640DEB
:102E60000A0000004C657420737461727421212182
:102E7000000000003333333333331D40C58F913F9F
:102E800064697374616E636520697320252E3166F1
:102E90000D0A0000000070412D2D2D202020202D36
:102EA0002D2D0000302020202020203000000000A8
:102EB00030303030000000003E2020202020203C18
:102EC0000000000049742773206F7665722121216C
:102ED0000000000056560000022800D20220012106
:102EE0008907401EC862012048610A6982430A615D
:102EF0000A6802430A600869C007FCD008694008F4
:102F0000400008617047000000000000000001025E
:102F1000030406070809030406080C1018203000F3
:102F20000000000102030400482F000800000020F8
:102F30003000000004210008782F00083000002035
:102F4000F004000014210008000000000000000050
:102F50000000000000000000000000004C696E58F6
:102F600069755765690D0A00000000000000000047
:082F7000000000000000200039
:04000005080000C12E
:00000001FF
